:1000000019C03EC661C43CC63BC63AC639C638C6EE
:1000100037C636C635C634C633C632C631C630C614
:100020002FC62EC62DC62CC62BC62AC629C628C644
:1000300027C626C611241FBECFEFCDBFDFE3DEBF2C
:10004000E4E3F0E040E017C0B591A591359125912A
:10005000059107FD0CC095918591EF01F92FE82FCF
:1000600005900D92A217B307D9F7FE0104C01D92A7
:10007000A217B307E1F7E433F40731F793D1EDC5E5
:04008000F894FFCF22
:1000840030313233343536373839414243444546CA
:1000940000454550524F4D5B005D3B2000204352CC
:1000A400433A20005368757474696E6720646F77EF
:1000B4006E3B20696E73756666696369656E74204C
:1000C400766F6C74616765206465746563746564D8
:1000D4002E20506C65617365207265636F6E6E656A
:1000E40063742077697468203556205643432E0084
:1000F400696E666F004D4F444500437573746F6DB0
:100104006572204D6F64650A005245534554005290
:100114006573657420746F20666163746F727920EF
:100124006D6F64652E20446973636F6E6E656374CE
:1001340020616E64207265636F6E6E6563742C203B
:100144007468656E20726566657220746F20646FD2
:1001540063756D656E746174696F6E20666F72206D
:10016400696E737472756374696F6E732E200A00FE
:100174004C4F470043757272656E742062797465E2
:1001840073202620726573706563746976652070C8
:100194006F736974696F6E733A200A004F464600A4
:1001A4004D43552064697361626C65642E0A004591
:1001B40072726F723A20496E76616C696420436F83
:1001C4006D6D616E640A004572726F723A204C65FF
:1001D4006E677468206572726F720A00494E4954E2
:1001E40000466163746F7279204D6F64650A00463E
:1001F400494E414C00456E746572656420637573A5
:10020400746F6D6572206D6F64652E20446973632D
:100214006F6E6E65637420616E64207265636F6EC9
:100224006E6563742C207468656E20696E707574D5
:100234002027696E666F2720666F72207368756E5B
:10024400742063686172616374657269737469634D
:10025400732E200A005553415254204572726F7216
:100264003A205061726974790A00555341525420FE
:0E0274004572726F723A204672616D650A0023
:10028200CF93DF93EC0160EE71E88FD4892B09F5EF
:1002920005D225E186E195E0215080409040E1F7CA
:1002A200FDD125E186E195E0215080409040E1F7C3
:1002B200F5D125E186E195E0215080409040E1F7BB
:1002C200EDD125E186E195E0215080409040E1F7B3
:1002D20065C069EF70E8CE0168D4892B59F485EEC8
:1002E20091E843D325E186E195E02150804090409A
:1002F200E1F754C063EF71E8CE0157D4892B69F45A
:1003020081E0B1D489EF91E830D325E186E195E02F
:10031200215080409040E1F741C064E771E8CE018E
:1003220044D4892B61F488E791E81FD337D225E1C1
:1003320086E195E0215080409040E1F72FC0FE0118
:1003420001900020E9F73197EC1BFD0BE833F10532
:1003520071F4CE010AD38AE05FD4CE0154D225E1F2
:1003620086E195E0215080409040E1F717C0369732
:1003720058F483EB91E8F9D225E186E195E021502A
:1003820080409040E1F70AC08BEC91E8EED225E183
:1003920086E195E0215080409040E1F7DF91CF91D6
:0203A2000895BC
:1003A400CF92DF92EF92FF920F931F93CF93DF933D
:1003B400CDB7DEB7E997CDBFDEBF04D4B0D218D431
:1003C40080E090E040D48F3F09F4EFD21BD488231F
:1003D400B9F0CE0101967C01C82EDF2C00E0A8956F
:1003E400C5D329D4182F1FD411FF04C089E592E87E
:1003F400BBD207C012FF0BC08EE692E8B5D201C093
:1004040000E0CE0101967C01C82EDF2C0CC08A309E
:1004140049F18D3021F3083318F5F701E00FF11D90
:1004240080830F5FDCCFA895A1D305D4182FFBD30D
:1004340011FF04C089E592E897D227C012FF04C0D7
:100444008EE692E891D221C08A30A1F08D3059F322
:100454000833C8F4F701E00FF11D80830F5FE3CF89
:1004640000E0BDCFF701E00FF11D10828C2D9D2D12
:100474009AD0B4CFF701E00FF11D10828C2D9D2D81
:10048400FEDE00E0D0CF00E0CECF80E090E0E99641
:10049400CDBFDEBFDF91CF911F910F91FF90EF9001
:0604A400DF90CF900895E7
:1004AA00001D3A2774694E53E8F5D2CF9C81A6BB4A
:1004BA00CDD0F7EAB9A4839E25381F02514C6B763A
:1004CA00879ABDA0F3EEC9D46F7255481B06213C2A
:1004DA004A57706D3E230419A2BF9885D6CBECF11A
:1004EA00130E2934677A5D40FBE6C1DC8F92B5A80A
:1004FA00DEC3E4F9AAB7908D362B0C11425F7865FA
:10050A009489AEB3E0FDDAC77C61465B0815322FE9
:10051A005944637E2D30170AB1AC8B96C5D8FFE2D9
:10052A00263B1C01524F6875CED3F4E9BAA7809DC9
:10053A00EBF6D1CC9F82A5B8031E3924776A4D50B9
:10054A00A1BC9B86D5C8EFF24954736E3D20071AA9
:10055A006C71564B1805223F8499BEA3F0EDCAD799
:10056A0035280F12415C7B66DDC0E7FAA9B4938E89
:10057A00F8E5C2DF8C91B6AB100D2A3764795E4379
:10058A00B2AF8895C6DBFCE15A47607D2E33140969
:10059A007F6245580B16312C978AADB0E3FED9C459
:1005AA00CF93DF93EC0164EF70E8FBD2892B49F417
:1005BA0071D025E186E195E0215080409040E1F735
:1005CA0066C069EF70E8CE01ECD2892B59F48EEF40
:1005DA0090E8C7D125E186E195E02150804090401E
:1005EA00E1F755C06DE071E8CE01DBD2892B69F4E1
:1005FA0080E035D383E191E8B4D125E186E195E045
:10060A00215080409040E1F742C064E771E8CE0192
:10061A00C8D2892B61F488E791E8A3D1BBD025E140
:10062A0086E195E0215080409040E1F730C060EAD1
:10063A0071E8CE01B6D2892B61F484EA91E891D1AE
:10064A0025E186E195E0215080409040E1F79AD279
:10065A001EC0FE0101900020E9F73197EC1BFD0B4B
:10066A00369758F483EB91E87CD125E186E195E051
:10067A00215080409040E1F70AC08BEC91E871D19B
:10068A0025E186E195E0215080409040E1F7DF9135
:04069A00CF9108955F
:10069E00EF92FF921F93CF93DF93CDB7DEB7CF5775
:1006AE00D109CDBFDEBF4FE750E061E070E0CE0173
:1006BE000196D8D2898181111AC00AC0F7018191A1
:1006CE007F01882331F0A2D21F5F1F37B9F701C017
:1006DE0010E0612F70E0CE01019607D2182F81EA4B
:1006EE0090E83DD1812FBCD08AE090D207C08ED247
:1006FE007E01F2E0EF0EF11C11E0E0CFC158DF4FAA
:10070E00CDBFDEBFDF91CF911F91FF90EF90089587
:10071E00A0E0B0E0E4E9F3E0C1C1C0E20FE714E10C
:10072E00DDE923E0F22E4115510571F1262F2F71CF
:10073E003C2F321B232F30E04217530708F49A0147
:10074E00D22EF801E21BF30BE617F70708F48ED250
:10075E00E0910210E1FDFCCFC82EDB01BC5EFC0176
:10076E00E0900210E1FCFCCFE190ED92EE2EEC1841
:10077E00ED14B0F3D4BFF0920010820F931F620FEE
:10078E00731F421B530BCFCFCDB7DEB7E8E09FC12F
:10079E00EF92FF921F93CF93DF93CDB7DEB7C05882
:1007AE00D109CDBFDEBF4FE750E061E070E0CE0172
:1007BE00019658D2698161110EC00AC0F70161918C
:1007CE007F01662329F01F5F812FB8D11F37B1F744
:1007DE008AE01CD208C081E0B1D17E01F2E0EF0EBA
:1007EE00F11C11E0EBCFC058DF4FCDBFDEBFDF9164
:0A07FE00CF911F91FF90EF90089536
:100808000F931F93CF93DF93EC01FC01019000201D
:10081800E9F73197E81BF90B39F03197E80FF91F21
:1008280080818A3009F41082FE0101900020E9F7E6
:10083800AF014C1B5D0B61E070E0CE016CDFFE0187
:1008480001900020E9F731978F010C1B1D0BB801AF
:10085800CE0102D1682FC80102965FD1DF91CF91F6
:060868001F910F9108959D
:10086E001F93CF93DF93CDB7DEB76197CDBFDEBFBA
:10087E00182F81E1E4E8F0E8DE01119601900D9267
:10088E008A95E1F7812F82958F70E1E0F0E0EC0F11
:10089E00FD1FE80FF11D8081B9D11F70E1E0F0E07E
:1008AE00EC0FFD1FE10FF11D8081B0D16196CDBF20
:0A08BE00DEBFDF91CF911F91089576
:1008C8001F920F920FB60F9211242F933F934F93BD
:1008D8005F936F937F938F939F93AF93BF93EF93A0
:1008E800FF9388EA90E83ED025E186E195E0215023
:1008F80080409040E1F794D0FF91EF91BF91AF9184
:100908009F918F917F916F915F914F913F912F911F
:0A0918000F900FBE0F901F9018956E
:10092200F894E0E2F4E08481846084838081877FAC
:100932008083808184608083E0E0F8E08DE695E04A
:10094200808791878781806387838681806C868395
:10095200868180618683858180688583E0ECF1E011
:0A09620080818064808378940895FA
:10096C00EF92FF920F931F93CF93DF938C017C0137
:10097C00C0E0D0E005C0F70181917F0148D12196FC
:10098C00F80101900020E9F73197E01BF10BCE172D
:10099C00DF0788F3DF91CF911F910F91FF90EF90BC
:0209AC000895AC
:1009AE00CF93DF93CDB7DEB7C058D109CDBFDEBF31
:1009BE00FE01319680E8DF011D928A95E9F74FE737
:1009CE0050E061E070E0CE010296A2DE80E045D1FB
:0E09DE00C058DF4FCDBFDEBFDF91CF9108952F
:1009EC00CF93C82F8A3040F08DECC89F812D1124F5
:1009FC00869586958695F4DF9DECC99F912D1124E3
:100A0C00969596959695990F892F880F880F980F24
:0C0A1C008C2F891B805DFBD0CF910895CA
:100A2800E0E0F8E086818F73868385818F77858300
:100A3800E0E2F4E084818B7F84838081877F8083F8
:100A4800E0E5F0E084E080838081816080838081BC
:080A58008160808388950895F8
:100A600061157105B1F0FC01680F791F8FEF9DE1F1
:100A70002191822728E030E088231CF4880F892701
:100A800001C0880F21503109B9F7E617F70781F740
:060A900008958FEF0895A8
:100A96002F923F924F925F926F927F928F929F9288
:100AA600AF92BF92CF92DF92EF92FF920F931F9376
:100AB600CF93DF93CDB7DEB7CA1BDB0BCDBFDEBF4F
:020AC600099491
:100AC8002A88398848885F846E847D848C849B84D6
:100AD800AA84B984C884DF80EE80FD800C811B81E4
:100AE800AA81B981CE0FD11DCDBFDEBFED0108951A
:100AF8006115710571F0DC01680F791FEFEF8D91B9
:100B0800E827F0E0E655FB47E081A617B707B9F7F5
:0A0B180001C0EFEF8E2F80950895C5
:100B2200262FAF93BF93E0E0F0E1328131FDFDCF9C
:100B3200DC01A050BC4E2C933DE934BF23E020835E
:080B42000196BF91AF910895E7
:100B4A00CF93DF93D82FC62F85E990E80ADF8D2F40
:100B5A0048DF8DE990E805DF8C2F5AD08AE058D01B
:060B6A00DF91CF91089518
:100B7000E0E5F0E082E08083808181608083808195
:0E0B800081608083889580818E7F80830895B8
:100B8E00E0E5F0E084E08083808181608083808175
:0E0B9E0081608083889580818E7F808308959A
:100BAC00DC01FB019D912191921303C09111FACFAD
:0C0BBC00292F892F90E0821B91090895D9
:100BC800E0E8F0E084E0808387E081831086818517
:060BD80081608187089591
:100BDE00FB01DC01480F591FA417B50719F021912D
:060BEE002D93FACF0895DB
:100BF40088ED90E084BF909300019AE884BF9093BD
:040C0400000108954E
:100C080080E090E01ED091E0813009F090E0892FDB
:020C180008953D
:100C1A00E0E0F8E0948195FFFDCF80930208089503
:100C2A00E0E0F8E084818823ECF7809100080895D9
:100C3A00E0E0F8E084818823ECF7809101080895C8
:100C4A0003D0808199270895FC01E050FC4E089555
:0E0C5A00EC0113D011D0CE0111D0CE0110D07C
:0A0C6800682F80E090E059DF089546
:080C720060507C4E0C94EF056C
:060C7A008FEF9FEF04D094
:020C8000BFC9EA
:020C82000895D3
:020C84000895D1
:020C86000895CF
:020C8800FBD996
:00000001FF
