:1000000019C0BDC5D2C3BBC5BAC5B9C5B8C5B7C58A
:10001000B6C5B5C5B4C5B3C5B2C5B1C5B0C5AFC524
:10002000AEC5ADC5ACC5ABC5AAC5A9C5A8C5A7C554
:10003000A6C5A5C511241FBECFEFCDBFDFE3DEBF30
:0800400016D18AC5F894FFCF28
:100048003031323334353637383941424344454606
:1000580000454550524F4D5B005D3B200020435208
:10006800433A2000446174612069732076616C69A9
:10007800642E200A004572726F723A204352432060
:100088006D69736D6174636821200A005368757423
:1000980074696E6720646F776E3B20696E7375664E
:1000A80066696369656E7420766F6C746167652034
:1000B80064657465637465642E20506C656173654E
:1000C800207265636F6E6E6563742077697468204B
:1000D8003556205643432E00696E666F004D4F44D7
:1000E8004500437573746F6D6572204D6F64650AC2
:1000F80000524553455400526573657420746F204F
:10010800666163746F7279206D6F64652E2044692F
:1001180073636F6E6E65637420616E6420726563CD
:100128006F6E6E6563742C207468656E20726566E8
:10013800657220746F20646F63756D656E74617489
:10014800696F6E20666F7220696E7374727563745E
:10015800696F6E732E200A004C4F47004375727208
:10016800656E7420627974657320262072657370D9
:1001780065637469766520706F736974696F6E73EF
:100188003A200A004F4646004D4355206469736182
:10019800626C65642E0A004572726F723A20496E6D
:1001A80076616C696420436F6D6D616E640A004509
:1001B80072726F723A204C656E677468206572724D
:1001C8006F720A00494E495400466163746F727930
:1001D800204D6F64650A0046494E414C00456E74D7
:1001E8006572656420637573746F6D6572206D6FD9
:1001F80064652E20446973636F6E6E656374206155
:100208006E64207265636F6E6E6563742C2074680B
:10021800656E20696E7075742027696E666F272079
:10022800666F72207368756E7420636861726163AB
:100238007465726973746963732E200A005553419B
:100248005254204572726F723A2050617269747903
:100258000A005553415254204572726F723A204633
:0602680072616D650A00E1
:10026E00CF92DF92EF92FF920F931F93CF93DF9374
:10027E00CDB7DEB7E997CDBFDEBF1ED4BCD232D428
:10028E0080E090E05AD48F3F09F41ED335D48823F2
:10029E00B9F0CE0101967C01C82EDF2C00E0A895A6
:1002AE00DFD343D4182F39D411FF04C085E492E86C
:1002BE00EAD207C012FF0BC08AE592E8E4D201C071
:1002CE0000E0CE0101967C01C82EDF2C0CC08A30D6
:1002DE0049F18D3021F3083318F5F701E00FF11DC8
:1002EE0080830F5FDCCFA895BBD31FD4182F15D4F6
:1002FE0011FF04C085E492E8C6D227C012FF04C0E5
:10030E008AE592E8C0D221C08A30A1F08D3059F32F
:10031E000833C8F4F701E00FF11D80830F5FE3CFC0
:10032E0000E0BDCFF701E00FF11D10828C2D9D2D49
:10033E0097D0B4CFF701E00FF11D10828C2D9D2DBB
:10034E0012D000E0D0CF00E0CECF80E090E0E99672
:10035E00CDBFDEBFDF91CF911F910F91FF90EF9038
:06036E00DF90CF9008951E
:10037400CF93DF93EC016CEC71E895D3892B69F48E
:10038400C4E0EED075D125E186E195E021508040AE
:100394009040E1F7C150A9F765C065EE70E8CE0161
:1003A40082D3892B59F481ED91E872D225E186E15B
:1003B40095E0215080409040E1F754C06FED71E822
:1003C400CE0171D3892B69F481E0CBD385EE91E81A
:1003D4005FD225E186E195E0215080409040E1F72D
:1003E40041C060E671E8CE015ED3892B61F484E6F6
:1003F40091E84ED276D125E186E195E02150804006
:100404009040E1F72FC0FE0101900020E9F73197F9
:10041400EC1BFD0BE833F10571F4CE0139D28AE00F
:1004240079D3CE0112D225E186E195E021508040B6
:100434009040E1F717C0369758F48FE991E828D235
:1004440025E186E195E0215080409040E1F70AC023
:1004540087EB91E81DD225E186E195E021508040AB
:0A0464009040E1F7DF91CF91089579
:10046E00CF93DF93EC0160EE70E818D3892B51F433
:10047E0072D0F9D025E186E195E021508040904080
:10048E00E1F766C065EE70E8CE0108D3892B59F40A
:10049E008AEE90E8F8D125E186E195E02150804082
:1004AE009040E1F755C069EF70E8CE01F7D2892B85
:1004BE0069F480E051D38FEF90E8E5D125E186E134
:1004CE0095E0215080409040E1F742C060E671E82F
:1004DE00CE01E4D2892B61F484E691E8D4D1FCD02C
:1004EE0025E186E195E0215080409040E1F730C053
:1004FE006CE871E8CE01D2D2892B61F480E991E8E3
:10050E00C2D125E186E195E0215080409040E1F78F
:10051E00B6D21EC0FE0101900020E9F73197EC1B08
:10052E00FD0B369758F48FE991E8ADD125E186E1C0
:10053E0095E0215080409040E1F70AC087EB91E8AA
:10054E00A2D125E186E195E0215080409040E1F76F
:06055E00DF91CF9108952A
:10056400EF92FF920F931F93CF93DF93CDB7DEB734
:10057400C058D109CDBFDEBF4FE750E061E070E065
:10058400CE010196F3D2898181111EC009C0F80100
:1005940081918F01882321F0BDD2E016F106B9F7CD
:1005A400CE010196FC0101900020E9F73197BF01CB
:1005B400681B790BE7D1182F85E690E869D1812F64
:1005C400C5D08AE0A7D209C0A5D28E010E5F1F4F05
:1005D4007E01F0E8EF0EF11CDACFC058DF4FCDBF3B
:1005E400DEBFDF91CF911F910F91FF90EF9008959F
:1005F400A0E0B0E0EFEFF2E0EAC1C0E20FE714E1FF
:10060400DDE923E0F22E4115510571F1262F2F71FA
:100614003C2F321B232F30E04217530708F49A0172
:10062400D22EF801E21BF30BE617F70708F4A2D267
:10063400E0910210E1FDFCCFC82EDB01BC5EFC01A1
:10064400E0900210E1FCFCCFE190ED92EE2EEC186C
:10065400ED14B0F3D4BFF0920010820F931F620F19
:10066400731F421B530BCFCFCDB7DEB7E8E0C8C131
:10067400DF92EF92FF920F931F93CF93DF93CDB747
:10068400DEB7C058D109CDBFDEBF4FE750E061E00F
:1006940070E0CE0101967C0169D2F701019000203F
:1006A400E9F731978F010E191F09C80102964AD242
:1006B400D82EB801C70166D1D81204C08CE690E8E0
:1006C400E7D003C08DE790E8E3D0C058DF4FCDBF3B
:1006D400DEBFDF91CF911F910F91FF90EF90DF90DC
:0206E400089577
:1006E600EF92FF921F93CF93DF93CDB7DEB7C0583B
:1006F600D109CDBFDEBF4FE750E061E070E0CE012B
:10070600019633D2698161110EC00AC0F701619169
:100716007F01662329F01F5F812F93D11F37B1F721
:100726008AE0F7D108C081E08CD17E01F2E0EF0EBD
:10073600F11C11E0EBCFC058DF4FCDBFDEBFDF911C
:0A074600CF911F91FF90EF900895EE
:100750001F93CF93DF93CDB7DEB76197CDBFDEBFD9
:10076000182F81E1E8E4F0E8DE01119601900D9286
:100770008A95E1F7812F82958F70E1E0F0E0EC0F30
:10078000FD1FE80FF11D8081C7D11F70E1E0F0E08F
:10079000EC0FFD1FE10FF11D8081BED16196CDBF31
:0A07A000DEBFDF91CF911F91089595
:1007AA001F920F920FB60F9211242F933F934F93DC
:1007BA005F936F937F938F939F93AF93BF93EF93BF
:1007CA00FF9384E990E861D025E186E195E0215024
:1007DA0080409040E1F7B7D0FF91EF91BF91AF9180
:1007EA009F918F917F916F915F914F913F912F913F
:0A07FA000F900FBE0F901F9018958E
:10080400F894E0E2F4E08481846084838081877FCB
:100814008083808184608083E0E0F8E08DE695E069
:10082400808791878781806387838681806C8683B4
:10083400868180618683858180688583E0ECF1E030
:0A0844008081806480837894089519
:10084E000F931F93CF93DF938C01FC010190002037
:10085E00E9F7AF01481B590B61E070E0C4DEF80107
:10086E0001900020E9F73197EF01C01BD10BBE01BB
:10087E00C80183D0682FCE010296CBD0DF91CF91E5
:06088E001F910F91089577
:10089400EF92FF920F931F93CF93DF938C017C0110
:1008A400C0E0D0E005C0F70181917F0133D12196EA
:1008B400F80101900020E9F73197E01BF10BCE1706
:1008C400DF0788F3DF91CF911F910F91FF90EF9095
:0208D400089585
:1008D600CF93DF93CDB7DEB7C058D109CDBFDEBF0A
:1008E600FE01319680E8DF011D928A95E9F74FE710
:1008F60050E061E070E0CE01029679DE80E030D112
:0E090600C058DF4FCDBFDEBFDF91CF91089507
:10091400CF93C82F8A3040F08DECC89F812D1124CD
:10092400869586958695F4DF9DECC99F912D1124BB
:10093400969596959695990F892F880F880F980FFD
:0C0944008C2F891B805DE6D0CF910895B8
:10095000E0E0F8E086818F73868385818F778583D9
:10096000E0E2F4E084818B7F84838081877F8083D1
:10097000E0E5F0E084E08083808181608083808195
:080980008160808388950895D1
:1009880061157105B1F0FC01680F791F80E091E3F2
:100998002191822728E030E088231CF4880F8927DA
:1009A80001C0880F21503109B9F7E617F70781F719
:0609B800089580E008959F
:1009BE002F923F924F925F926F927F928F929F9261
:1009CE00AF92BF92CF92DF92EF92FF920F931F934F
:1009DE00CF93DF93CDB7DEB7CA1BDB0BCDBFDEBF28
:0209EE0009946A
:1009F0002A88398848885F846E847D848C849B84AF
:100A0000AA84B984C884DF80EE80FD800C811B81BC
:100A1000AA81B981CE0FD11DCDBFDEBFED010895F2
:100A2000262FAF93BF93E0E0F0E1328131FDFDCF9F
:100A3000DC01A050BC4E2C933DE934BF23E0208361
:080A40000196BF91AF910895EA
:100A4800CF93DF93D82FC62F89E590E81FDF8D2F2E
:100A58005DDF81E690E81ADF8C2F5AD08AE058D003
:060A6800DF91CF9108951B
:100A6E00E0E5F0E082E08083808181608083808198
:0E0A7E0081608083889580818E7F80830895BB
:100A8C00E0E5F0E084E08083808181608083808178
:0E0A9C0081608083889580818E7F808308959D
:100AAA00DC01FB019D912191921303C09111FACFB0
:0C0ABA00292F892F90E0821B91090895DC
:100AC600E0E8F0E084E0808387E08183108681851A
:060AD60081608187089594
:100ADC00FB01DC01480F591FA417B50719F0219130
:060AEC002D93FACF0895DE
:100AF20088ED90E084BF909300019AE884BF9093C0
:040B02000001089551
:100B060080E090E01ED091E0813009F090E0892FDE
:020B1600089540
:100B1800E0E0F8E0948195FFFDCF80930208089506
:100B2800E0E0F8E084818823ECF7809100080895DC
:100B3800E0E0F8E084818823ECF7809101080895CB
:100B480003D0808199270895FC01E050FC4E089558
:0E0B5800EC0113D011D0CE0111D0CE0110D07F
:0A0B6600682F80E090E059DF089549
:080B700060507C4E0C946E05F0
:060B78008FEF9FEF04D097
:020B7E0040CA6B
:020B80000895D6
:020B82000895D4
:020B84000895D2
:020B86005EDA35
:00000001FF
